{
  "contractName": "Voting",
  "abi": [
    {
      "anonymous": false,
      "inputs": [
        {
          "indexed": true,
          "internalType": "address",
          "name": "previousOwner",
          "type": "address"
        },
        {
          "indexed": true,
          "internalType": "address",
          "name": "newOwner",
          "type": "address"
        }
      ],
      "name": "OwnershipTransferred",
      "type": "event"
    },
    {
      "anonymous": false,
      "inputs": [
        {
          "indexed": false,
          "internalType": "uint256",
          "name": "proposalId",
          "type": "uint256"
        }
      ],
      "name": "ProposalRegistered",
      "type": "event"
    },
    {
      "anonymous": false,
      "inputs": [],
      "name": "ProposalsRegistrationEnded",
      "type": "event"
    },
    {
      "anonymous": false,
      "inputs": [],
      "name": "ProposalsRegistrationStarted",
      "type": "event"
    },
    {
      "anonymous": false,
      "inputs": [
        {
          "indexed": false,
          "internalType": "address",
          "name": "voter",
          "type": "address"
        },
        {
          "indexed": false,
          "internalType": "uint256",
          "name": "proposalId",
          "type": "uint256"
        }
      ],
      "name": "Voted",
      "type": "event"
    },
    {
      "anonymous": false,
      "inputs": [
        {
          "indexed": false,
          "internalType": "address",
          "name": "voterAddress",
          "type": "address"
        }
      ],
      "name": "VoterRegistered",
      "type": "event"
    },
    {
      "anonymous": false,
      "inputs": [],
      "name": "VotesTallied",
      "type": "event"
    },
    {
      "anonymous": false,
      "inputs": [],
      "name": "VotingSessionEnded",
      "type": "event"
    },
    {
      "anonymous": false,
      "inputs": [],
      "name": "VotingSessionStarted",
      "type": "event"
    },
    {
      "anonymous": false,
      "inputs": [
        {
          "indexed": false,
          "internalType": "enum Voting.WorkflowStatus",
          "name": "previousStatus",
          "type": "uint8"
        },
        {
          "indexed": false,
          "internalType": "enum Voting.WorkflowStatus",
          "name": "newStatus",
          "type": "uint8"
        }
      ],
      "name": "WorkflowStatusChange",
      "type": "event"
    },
    {
      "inputs": [
        {
          "internalType": "uint256",
          "name": "",
          "type": "uint256"
        }
      ],
      "name": "listProposals",
      "outputs": [
        {
          "internalType": "string",
          "name": "description",
          "type": "string"
        },
        {
          "internalType": "uint256",
          "name": "voteCount",
          "type": "uint256"
        }
      ],
      "stateMutability": "view",
      "type": "function",
      "constant": true
    },
    {
      "inputs": [],
      "name": "owner",
      "outputs": [
        {
          "internalType": "address",
          "name": "",
          "type": "address"
        }
      ],
      "stateMutability": "view",
      "type": "function",
      "constant": true
    },
    {
      "inputs": [],
      "name": "proposalCounts",
      "outputs": [
        {
          "internalType": "uint256",
          "name": "_value",
          "type": "uint256"
        }
      ],
      "stateMutability": "view",
      "type": "function",
      "constant": true
    },
    {
      "inputs": [],
      "name": "renounceOwnership",
      "outputs": [],
      "stateMutability": "nonpayable",
      "type": "function"
    },
    {
      "inputs": [
        {
          "internalType": "address",
          "name": "newOwner",
          "type": "address"
        }
      ],
      "name": "transferOwnership",
      "outputs": [],
      "stateMutability": "nonpayable",
      "type": "function"
    },
    {
      "inputs": [
        {
          "internalType": "address",
          "name": "",
          "type": "address"
        }
      ],
      "name": "whiteList",
      "outputs": [
        {
          "internalType": "bool",
          "name": "isRegistered",
          "type": "bool"
        },
        {
          "internalType": "bool",
          "name": "hasVoted",
          "type": "bool"
        },
        {
          "internalType": "uint256",
          "name": "votedProposalId",
          "type": "uint256"
        }
      ],
      "stateMutability": "view",
      "type": "function",
      "constant": true
    },
    {
      "inputs": [],
      "name": "workflowState",
      "outputs": [
        {
          "internalType": "enum Voting.WorkflowStatus",
          "name": "",
          "type": "uint8"
        }
      ],
      "stateMutability": "view",
      "type": "function",
      "constant": true
    },
    {
      "inputs": [
        {
          "internalType": "address",
          "name": "_address",
          "type": "address"
        }
      ],
      "name": "isVoter",
      "outputs": [
        {
          "internalType": "bool",
          "name": "",
          "type": "bool"
        }
      ],
      "stateMutability": "view",
      "type": "function",
      "constant": true
    },
    {
      "inputs": [
        {
          "internalType": "address",
          "name": "_address",
          "type": "address"
        }
      ],
      "name": "registerVoter",
      "outputs": [],
      "stateMutability": "nonpayable",
      "type": "function"
    },
    {
      "inputs": [],
      "name": "startProposalRegistration",
      "outputs": [],
      "stateMutability": "nonpayable",
      "type": "function"
    },
    {
      "inputs": [
        {
          "internalType": "string",
          "name": "_description",
          "type": "string"
        }
      ],
      "name": "registerProposal",
      "outputs": [],
      "stateMutability": "nonpayable",
      "type": "function"
    },
    {
      "inputs": [],
      "name": "endProposalRegistration",
      "outputs": [],
      "stateMutability": "nonpayable",
      "type": "function"
    },
    {
      "inputs": [],
      "name": "VotingSessionStart",
      "outputs": [],
      "stateMutability": "nonpayable",
      "type": "function"
    },
    {
      "inputs": [
        {
          "internalType": "uint256",
          "name": "idProposal",
          "type": "uint256"
        }
      ],
      "name": "Vote",
      "outputs": [],
      "stateMutability": "nonpayable",
      "type": "function"
    },
    {
      "inputs": [],
      "name": "VotingSessionEnd",
      "outputs": [],
      "stateMutability": "nonpayable",
      "type": "function"
    },
    {
      "inputs": [],
      "name": "countVotes",
      "outputs": [],
      "stateMutability": "nonpayable",
      "type": "function"
    },
    {
      "inputs": [],
      "name": "getWinningProposal",
      "outputs": [
        {
          "internalType": "string",
          "name": "",
          "type": "string"
        }
      ],
      "stateMutability": "view",
      "type": "function",
      "constant": true
    }
  ],
  "bytecode": "0x608060405234801561001057600080fd5b5060006100216100c460201b60201c565b9050806000806101000a81548173ffffffffffffffffffffffffffffffffffffffff021916908373ffffffffffffffffffffffffffffffffffffffff1602179055508073ffffffffffffffffffffffffffffffffffffffff16600073ffffffffffffffffffffffffffffffffffffffff167f8be0079c531659141344cd1fd0a4f28419497f9722a3daafe3b4186f6b6457e060405160405180910390a3506100cc565b600033905090565b6120d2806100db6000396000f3fe608060405234801561001057600080fd5b506004361061010b5760003560e01c80638da5cb5b116100a2578063dcd6a5cd11610071578063dcd6a5cd1461049d578063e047edaf146104cb578063e51b6aad146104d5578063e85a8f2a146104df578063f2fde38b146104e95761010b565b80638da5cb5b14610382578063a5134620146103b6578063a7771ee314610439578063b647990a146104935761010b565b8063372c12b1116100de578063372c12b1146102ac57806338db6dd3146103165780634a91da481461035a578063715018a6146103785761010b565b806308a420f3146101105780630f7e2838146101be578063258aa079146101c85780632f95355b146101f1575b600080fd5b61013c6004803603602081101561012657600080fd5b810190808035906020019092919050505061052d565b6040518080602001838152602001828103825284818151815260200191508051906020019080838360005b83811015610182578082015181840152602081019050610167565b50505050905090810190601f1680156101af5780820380516001836020036101000a031916815260200191505b50935050505060405180910390f35b6101c66105e9565b005b6101d0610816565b604051808260058111156101e057fe5b815260200191505060405180910390f35b6102aa6004803603602081101561020757600080fd5b810190808035906020019064010000000081111561022457600080fd5b82018360208201111561023657600080fd5b8035906020019184600183028401116401000000008311171561025857600080fd5b91908080601f016020809104026020016040519081016040528093929190818152602001838380828437600081840152601f19601f820116905080830192505050505050509192919290505050610829565b005b6102ee600480360360208110156102c257600080fd5b81019080803573ffffffffffffffffffffffffffffffffffffffff169060200190929190505050610a0f565b6040518084151581526020018315158152602001828152602001935050505060405180910390f35b6103586004803603602081101561032c57600080fd5b81019080803573ffffffffffffffffffffffffffffffffffffffff169060200190929190505050610a53565b005b610362610cd5565b6040518082815260200191505060405180910390f35b610380610ce1565b005b61038a610e67565b604051808273ffffffffffffffffffffffffffffffffffffffff16815260200191505060405180910390f35b6103be610e90565b6040518080602001828103825283818151815260200191508051906020019080838360005b838110156103fe5780820151818401526020810190506103e3565b50505050905090810190601f16801561042b5780820380516001836020036101000a031916815260200191505b509250505060405180910390f35b61047b6004803603602081101561044f57600080fd5b81019080803573ffffffffffffffffffffffffffffffffffffffff169060200190929190505050610fe3565b60405180821515815260200191505060405180910390f35b61049b611104565b005b6104c9600480360360208110156104b357600080fd5b8101908080359060200190929190505050611397565b005b6104d36116b9565b005b6104dd6118e6565b005b6104e7611b13565b005b61052b600480360360208110156104ff57600080fd5b81019080803573ffffffffffffffffffffffffffffffffffffffff169060200190929190505050611d40565b005b6002602052806000526040600020600091509050806000018054600181600116156101000203166002900480601f0160208091040260200160405190810160405280929190818152602001828054600181600116156101000203166002900480156105d95780601f106105ae576101008083540402835291602001916105d9565b820191906000526020600020905b8154815290600101906020018083116105bc57829003601f168201915b5050505050908060010154905082565b6105f1611f4b565b73ffffffffffffffffffffffffffffffffffffffff1660008054906101000a900473ffffffffffffffffffffffffffffffffffffffff1673ffffffffffffffffffffffffffffffffffffffff16146106b1576040517f08c379a00000000000000000000000000000000000000000000000000000000081526004018080602001828103825260208152602001807f4f776e61626c653a2063616c6c6572206973206e6f7420746865206f776e657281525060200191505060405180910390fd5b600060058111156106be57fe5b600060149054906101000a900460ff1660058111156106d957fe5b1461074c576040517f08c379a000000000000000000000000000000000000000000000000000000000815260040180806020018281038252601d8152602001807f4572726f7220776974682074686520576f726b666c6f7753746174757300000081525060200191505060405180910390fd5b60008060149054906101000a900460ff1690506001600060146101000a81548160ff0219169083600581111561077e57fe5b02179055507f0a97a4ee45751e2abf3e4fc8946939630b11b371ea8ae39ccdc3056e98f5cc3f81600060149054906101000a900460ff16604051808360058111156107c557fe5b81526020018260058111156107d657fe5b81526020019250505060405180910390a17f344c25562921d075a298d34b6dd1fd00d36ff293974539dfd4a8c625d9f0064c60405160405180910390a150565b600060149054906101000a900460ff1681565b6001600581111561083657fe5b600060149054906101000a900460ff16600581111561085157fe5b146108c4576040517f08c379a000000000000000000000000000000000000000000000000000000000815260040180806020018281038252601d8152602001807f4572726f7220776974682074686520576f726b666c6f7753746174757300000081525060200191505060405180910390fd5b600160003373ffffffffffffffffffffffffffffffffffffffff1673ffffffffffffffffffffffffffffffffffffffff16815260200190815260200160002060000160009054906101000a900460ff16610969576040517f08c379a000000000000000000000000000000000000000000000000000000000815260040180806020018281038252602381526020018061207a6023913960400191505060405180910390fd5b610971611f77565b8181600001819052506109846003611f53565b80600260006109936003611f69565b815260200190815260200160002060008201518160000190805190602001906109bd929190611f91565b50602082015181600101559050507f92e393e9b54e2f801d3ea4beb0c5e71a21cc34a5d34b77d0fb8a3aa1650dc18f6109f66003611f69565b6040518082815260200191505060405180910390a15050565b60016020528060005260406000206000915090508060000160009054906101000a900460ff16908060000160019054906101000a900460ff16908060010154905083565b610a5b611f4b565b73ffffffffffffffffffffffffffffffffffffffff1660008054906101000a900473ffffffffffffffffffffffffffffffffffffffff1673ffffffffffffffffffffffffffffffffffffffff1614610b1b576040517f08c379a00000000000000000000000000000000000000000000000000000000081526004018080602001828103825260208152602001807f4f776e61626c653a2063616c6c6572206973206e6f7420746865206f776e657281525060200191505060405180910390fd5b600160008273ffffffffffffffffffffffffffffffffffffffff1673ffffffffffffffffffffffffffffffffffffffff16815260200190815260200160002060000160009054906101000a900460ff1615610bde576040517f08c379a00000000000000000000000000000000000000000000000000000000081526004018080602001828103825260188152602001807f566f74657220616c72656164792052656769737465726564000000000000000081525060200191505060405180910390fd5b610be6612011565b600181600001901515908115158152505080600160008473ffffffffffffffffffffffffffffffffffffffff1673ffffffffffffffffffffffffffffffffffffffff16815260200190815260200160002060008201518160000160006101000a81548160ff02191690831515021790555060208201518160000160016101000a81548160ff021916908315150217905550604082015181600101559050507fb6be2187d059cc2a55fe29e0e503b566e1e0f8c8780096e185429350acffd3dd82604051808273ffffffffffffffffffffffffffffffffffffffff16815260200191505060405180910390a15050565b60038060000154905081565b610ce9611f4b565b73ffffffffffffffffffffffffffffffffffffffff1660008054906101000a900473ffffffffffffffffffffffffffffffffffffffff1673ffffffffffffffffffffffffffffffffffffffff1614610da9576040517f08c379a00000000000000000000000000000000000000000000000000000000081526004018080602001828103825260208152602001807f4f776e61626c653a2063616c6c6572206973206e6f7420746865206f776e657281525060200191505060405180910390fd5b600073ffffffffffffffffffffffffffffffffffffffff1660008054906101000a900473ffffffffffffffffffffffffffffffffffffffff1673ffffffffffffffffffffffffffffffffffffffff167f8be0079c531659141344cd1fd0a4f28419497f9722a3daafe3b4186f6b6457e060405160405180910390a360008060006101000a81548173ffffffffffffffffffffffffffffffffffffffff021916908373ffffffffffffffffffffffffffffffffffffffff160217905550565b60008060009054906101000a900473ffffffffffffffffffffffffffffffffffffffff16905090565b606060046005811115610e9f57fe5b600060149054906101000a900460ff166005811115610eba57fe5b14610f2d576040517f08c379a000000000000000000000000000000000000000000000000000000000815260040180806020018281038252601d8152602001807f4572726f7220776974682074686520576f726b666c6f7753746174757300000081525060200191505060405180910390fd5b6002600060045481526020019081526020016000206000018054600181600116156101000203166002900480601f016020809104026020016040519081016040528092919081815260200182805460018160011615610100020316600290048015610fd95780601f10610fae57610100808354040283529160200191610fd9565b820191906000526020600020905b815481529060010190602001808311610fbc57829003601f168201915b5050505050905090565b6000610fed611f4b565b73ffffffffffffffffffffffffffffffffffffffff1660008054906101000a900473ffffffffffffffffffffffffffffffffffffffff1673ffffffffffffffffffffffffffffffffffffffff16146110ad576040517f08c379a00000000000000000000000000000000000000000000000000000000081526004018080602001828103825260208152602001807f4f776e61626c653a2063616c6c6572206973206e6f7420746865206f776e657281525060200191505060405180910390fd5b600160008373ffffffffffffffffffffffffffffffffffffffff1673ffffffffffffffffffffffffffffffffffffffff16815260200190815260200160002060000160009054906101000a900460ff169050919050565b61110c611f4b565b73ffffffffffffffffffffffffffffffffffffffff1660008054906101000a900473ffffffffffffffffffffffffffffffffffffffff1673ffffffffffffffffffffffffffffffffffffffff16146111cc576040517f08c379a00000000000000000000000000000000000000000000000000000000081526004018080602001828103825260208152602001807f4f776e61626c653a2063616c6c6572206973206e6f7420746865206f776e657281525060200191505060405180910390fd5b600460058111156111d957fe5b600060149054906101000a900460ff1660058111156111f457fe5b14611267576040517f08c379a000000000000000000000000000000000000000000000000000000000815260040180806020018281038252601d8152602001807f4572726f7220776974682074686520576f726b666c6f7753746174757300000081525060200191505060405180910390fd5b600080600190505b6112796003611f69565b81116112cb5781600260008381526020019081526020016000206001015411156112be5760026000828152602001908152602001600020600101549150806004819055505b808060010191505061126f565b5060008060149054906101000a900460ff1690506005600060146101000a81548160ff021916908360058111156112fe57fe5b02179055507f0a97a4ee45751e2abf3e4fc8946939630b11b371ea8ae39ccdc3056e98f5cc3f81600060149054906101000a900460ff166040518083600581111561134557fe5b815260200182600581111561135657fe5b81526020019250505060405180910390a17f0e5e95ff8725ab3e7a4b6b59998a4c344c2aa8d1485f5e60cb7f337768e6134760405160405180910390a15050565b600360058111156113a457fe5b600060149054906101000a900460ff1660058111156113bf57fe5b14611432576040517f08c379a000000000000000000000000000000000000000000000000000000000815260040180806020018281038252601d8152602001807f4572726f7220776974682074686520576f726b666c6f7753746174757300000081525060200191505060405180910390fd5b600160003373ffffffffffffffffffffffffffffffffffffffff1673ffffffffffffffffffffffffffffffffffffffff16815260200190815260200160002060000160009054906101000a900460ff166114d7576040517f08c379a000000000000000000000000000000000000000000000000000000000815260040180806020018281038252602381526020018061207a6023913960400191505060405180910390fd5b600160003373ffffffffffffffffffffffffffffffffffffffff1673ffffffffffffffffffffffffffffffffffffffff16815260200190815260200160002060000160019054906101000a900460ff161561159a576040517f08c379a00000000000000000000000000000000000000000000000000000000081526004018080602001828103825260178152602001807f566f7465722068617320616c726561647920766f74656400000000000000000081525060200191505060405180910390fd5b600260008281526020019081526020016000206001016000815480929190600101919050555060018060003373ffffffffffffffffffffffffffffffffffffffff1673ffffffffffffffffffffffffffffffffffffffff16815260200190815260200160002060000160016101000a81548160ff02191690831515021790555080600160003373ffffffffffffffffffffffffffffffffffffffff1673ffffffffffffffffffffffffffffffffffffffff168152602001908152602001600020600101819055507f4d99b957a2bc29a30ebd96a7be8e68fe50a3c701db28a91436490b7d53870ca43382604051808373ffffffffffffffffffffffffffffffffffffffff1681526020018281526020019250505060405180910390a150565b6116c1611f4b565b73ffffffffffffffffffffffffffffffffffffffff1660008054906101000a900473ffffffffffffffffffffffffffffffffffffffff1673ffffffffffffffffffffffffffffffffffffffff1614611781576040517f08c379a00000000000000000000000000000000000000000000000000000000081526004018080602001828103825260208152602001807f4f776e61626c653a2063616c6c6572206973206e6f7420746865206f776e657281525060200191505060405180910390fd5b6003600581111561178e57fe5b600060149054906101000a900460ff1660058111156117a957fe5b1461181c576040517f08c379a000000000000000000000000000000000000000000000000000000000815260040180806020018281038252601d8152602001807f4572726f7220776974682074686520576f726b666c6f7753746174757300000081525060200191505060405180910390fd5b60008060149054906101000a900460ff1690506004600060146101000a81548160ff0219169083600581111561184e57fe5b02179055507f0a97a4ee45751e2abf3e4fc8946939630b11b371ea8ae39ccdc3056e98f5cc3f81600060149054906101000a900460ff166040518083600581111561189557fe5b81526020018260058111156118a657fe5b81526020019250505060405180910390a17fc379d349a6301baf50fb2f98d829f4ae10b1cdb7c66f4e4d8117302df7b8cd4c60405160405180910390a150565b6118ee611f4b565b73ffffffffffffffffffffffffffffffffffffffff1660008054906101000a900473ffffffffffffffffffffffffffffffffffffffff1673ffffffffffffffffffffffffffffffffffffffff16146119ae576040517f08c379a00000000000000000000000000000000000000000000000000000000081526004018080602001828103825260208152602001807f4f776e61626c653a2063616c6c6572206973206e6f7420746865206f776e657281525060200191505060405180910390fd5b600260058111156119bb57fe5b600060149054906101000a900460ff1660058111156119d657fe5b14611a49576040517f08c379a000000000000000000000000000000000000000000000000000000000815260040180806020018281038252601d8152602001807f4572726f7220776974682074686520576f726b666c6f7753746174757300000081525060200191505060405180910390fd5b60008060149054906101000a900460ff1690506003600060146101000a81548160ff02191690836005811115611a7b57fe5b02179055507f0a97a4ee45751e2abf3e4fc8946939630b11b371ea8ae39ccdc3056e98f5cc3f81600060149054906101000a900460ff1660405180836005811115611ac257fe5b8152602001826005811115611ad357fe5b81526020019250505060405180910390a17f1b8e19a458c1bcd88553332c518cc5c4e2d5793e712ee766d4f1c14f672ef1f560405160405180910390a150565b611b1b611f4b565b73ffffffffffffffffffffffffffffffffffffffff1660008054906101000a900473ffffffffffffffffffffffffffffffffffffffff1673ffffffffffffffffffffffffffffffffffffffff1614611bdb576040517f08c379a00000000000000000000000000000000000000000000000000000000081526004018080602001828103825260208152602001807f4f776e61626c653a2063616c6c6572206973206e6f7420746865206f776e657281525060200191505060405180910390fd5b60016005811115611be857fe5b600060149054906101000a900460ff166005811115611c0357fe5b14611c76576040517f08c379a000000000000000000000000000000000000000000000000000000000815260040180806020018281038252601d8152602001807f4572726f7220776974682074686520576f726b666c6f7753746174757300000081525060200191505060405180910390fd5b60008060149054906101000a900460ff1690506002600060146101000a81548160ff02191690836005811115611ca857fe5b02179055507f0a97a4ee45751e2abf3e4fc8946939630b11b371ea8ae39ccdc3056e98f5cc3f81600060149054906101000a900460ff1660405180836005811115611cef57fe5b8152602001826005811115611d0057fe5b81526020019250505060405180910390a17f240cb87b2e4df4c318e72bd714d45a9cad60249e883ff56b1fffd83a4595a8fa60405160405180910390a150565b611d48611f4b565b73ffffffffffffffffffffffffffffffffffffffff1660008054906101000a900473ffffffffffffffffffffffffffffffffffffffff1673ffffffffffffffffffffffffffffffffffffffff1614611e08576040517f08c379a00000000000000000000000000000000000000000000000000000000081526004018080602001828103825260208152602001807f4f776e61626c653a2063616c6c6572206973206e6f7420746865206f776e657281525060200191505060405180910390fd5b600073ffffffffffffffffffffffffffffffffffffffff168173ffffffffffffffffffffffffffffffffffffffff161415611e8e576040517f08c379a00000000000000000000000000000000000000000000000000000000081526004018080602001828103825260268152602001806120546026913960400191505060405180910390fd5b8073ffffffffffffffffffffffffffffffffffffffff1660008054906101000a900473ffffffffffffffffffffffffffffffffffffffff1673ffffffffffffffffffffffffffffffffffffffff167f8be0079c531659141344cd1fd0a4f28419497f9722a3daafe3b4186f6b6457e060405160405180910390a3806000806101000a81548173ffffffffffffffffffffffffffffffffffffffff021916908373ffffffffffffffffffffffffffffffffffffffff16021790555050565b600033905090565b6001816000016000828254019250508190555050565b600081600001549050919050565b604051806040016040528060608152602001600081525090565b828054600181600116156101000203166002900490600052602060002090601f016020900481019282601f10611fd257805160ff1916838001178555612000565b82800160010185558215612000579182015b82811115611fff578251825591602001919060010190611fe4565b5b50905061200d9190612036565b5090565b6040518060600160405280600015158152602001600015158152602001600081525090565b5b8082111561204f576000816000905550600101612037565b509056fe4f776e61626c653a206e6577206f776e657220697320746865207a65726f206164647265737355736572206973206e6f742072656769737472656420686173206120766f7465722021a26469706673582212205e35205bc32c241b2c74993fc603648aa870478dc33d99c5cd0beaa4ba2b8da864736f6c634300060c0033",
  "immutableReferences": {},
  "source": "// SPDX-License-Identifier: MIT\npragma solidity >=0.4.22 <0.8.0;\n\nimport \"@openzeppelin/contracts/access/Ownable.sol\";\nimport \"@openzeppelin/contracts/utils/Counters.sol\";\n\ncontract Voting is Ownable {\n\n    using Counters for Counters.Counter;\n\n    enum WorkflowStatus {\n        RegisteringVoters,\n        ProposalsRegistrationStarted,\n        ProposalsRegistrationEnded,\n        VotingSessionStarted,\n        VotingSessionEnded,\n        VotesTallied\n    }\n\n    WorkflowStatus public workflowState;\n\n    struct Voter {\n        bool isRegistered;\n        bool hasVoted;\n        uint votedProposalId;\n    }\n\n    mapping(address => Voter) public whiteList;\n    \n    struct Proposal {\n        string description;\n        uint voteCount;\n    }\n\n    mapping(uint => Proposal) public listProposals;\n\n    Counters.Counter public proposalCounts;\n\n    uint winningProposalId;\n\n    event VoterRegistered(address voterAddress);\n    event ProposalsRegistrationStarted();\n    event ProposalsRegistrationEnded();\n    event ProposalRegistered(uint proposalId);\n    event VotingSessionStarted();\n    event VotingSessionEnded();\n    event Voted (address voter, uint proposalId);\n    event VotesTallied();\n\n    event WorkflowStatusChange(WorkflowStatus previousStatus, WorkflowStatus newStatus);\n\n    function isVoter(address _address) public view onlyOwner returns(bool) {\n        return whiteList[_address].isRegistered;\n    }\n\n    function registerVoter(address _address) public onlyOwner {\n        require(!whiteList[_address].isRegistered, \"Voter already Registered\");\n\n        Voter memory newVoter;\n        newVoter.isRegistered = true;\n\n        whiteList[_address] = newVoter;\n\n        emit VoterRegistered(_address);\n    }\n\n    function startProposalRegistration() external onlyOwner {\n        require(workflowState == WorkflowStatus.RegisteringVoters, \"Error with the WorkflowStatus\");\n\n        WorkflowStatus oldState = workflowState;\n        workflowState = WorkflowStatus.ProposalsRegistrationStarted;\n\n        emit WorkflowStatusChange(oldState, workflowState);\n        emit ProposalsRegistrationStarted();\n    }\n\n    function registerProposal(string memory _description) external {\n        require(workflowState == WorkflowStatus.ProposalsRegistrationStarted, \"Error with the WorkflowStatus\");\n        require(whiteList[msg.sender].isRegistered, \"User is not registred has a voter !\");\n\n        Proposal memory newProposal;\n        newProposal.description = _description;\n\n        proposalCounts.increment();\n\n        listProposals[proposalCounts.current()] = newProposal;\n\n        emit ProposalRegistered(proposalCounts.current());\n    }\n\n    function endProposalRegistration() external onlyOwner {\n        require(workflowState == WorkflowStatus.ProposalsRegistrationStarted, \"Error with the WorkflowStatus\");\n\n        WorkflowStatus oldState = workflowState;\n        workflowState = WorkflowStatus.ProposalsRegistrationEnded;\n\n        emit WorkflowStatusChange(oldState, workflowState);\n        emit ProposalsRegistrationEnded();\n    }\n\n    function VotingSessionStart() external onlyOwner {\n        require(workflowState == WorkflowStatus.ProposalsRegistrationEnded, \"Error with the WorkflowStatus\");\n\n        WorkflowStatus oldState = workflowState;\n        workflowState = WorkflowStatus.VotingSessionStarted;\n\n        emit WorkflowStatusChange(oldState, workflowState);\n        emit VotingSessionStarted();\n    }\n\n    function Vote(uint idProposal) external  {\n        require(workflowState == WorkflowStatus.VotingSessionStarted, \"Error with the WorkflowStatus\");\n        require(whiteList[msg.sender].isRegistered, \"User is not registred has a voter !\");\n        require(!whiteList[msg.sender].hasVoted, \"Voter has already voted\");\n\n        listProposals[idProposal].voteCount++;\n        whiteList[msg.sender].hasVoted = true;\n        whiteList[msg.sender].votedProposalId = idProposal;\n\n        emit Voted(msg.sender, idProposal);\n    }\n\n    function VotingSessionEnd() external onlyOwner {\n        require(workflowState == WorkflowStatus.VotingSessionStarted, \"Error with the WorkflowStatus\");\n\n        WorkflowStatus oldState = workflowState;\n        workflowState = WorkflowStatus.VotingSessionEnded;\n \n        emit WorkflowStatusChange(oldState, workflowState);\n        emit VotingSessionEnded();\n    }\n\n    function countVotes() external onlyOwner{\n        require(workflowState == WorkflowStatus.VotingSessionEnded, \"Error with the WorkflowStatus\");\n\n        uint maxVotesProposal = 0;\n        for(uint i = 1; i <= proposalCounts.current(); i++ )\n        {\n            if(listProposals[i].voteCount > maxVotesProposal)\n            {\n                maxVotesProposal = listProposals[i].voteCount;\n                winningProposalId = i;\n            }\n        }\n\n        WorkflowStatus oldState = workflowState;\n        workflowState = WorkflowStatus.VotesTallied;\n\n        emit WorkflowStatusChange(oldState, workflowState);\n        emit VotesTallied();\n    }\n\n    function getWinningProposal() external view returns(string memory) {\n        require(workflowState == WorkflowStatus.VotingSessionEnded, \"Error with the WorkflowStatus\");\n\n        return listProposals[winningProposalId].description;\n    }\n}\n",
  "sourcePath": "/home/jason/Projets/alyra/DefiVote/contracts/Voting.sol",
  "compiler": {
    "name": "solc",
    "version": "0.6.12+commit.27d51765.Emscripten.clang"
  },
  "schemaVersion": "3.3.2",
  "updatedAt": "2020-11-24T17:16:28.771Z",
  "networkType": "ethereum",
  "devdoc": {
    "kind": "dev",
    "methods": {
      "owner()": {
        "details": "Returns the address of the current owner."
      },
      "renounceOwnership()": {
        "details": "Leaves the contract without owner. It will not be possible to call `onlyOwner` functions anymore. Can only be called by the current owner. NOTE: Renouncing ownership will leave the contract without an owner, thereby removing any functionality that is only available to the owner."
      },
      "transferOwnership(address)": {
        "details": "Transfers ownership of the contract to a new account (`newOwner`). Can only be called by the current owner."
      }
    },
    "version": 1
  },
  "userdoc": {
    "kind": "user",
    "methods": {},
    "version": 1
  }
}